:400000000010002011000000350900003509000010B500F05BFF00F095FCC04610B50F4C12232360182000F03DFEFE2212020C4B1A600C4B0C4A1A60802149010B4A116055
:400040000B4A1A6000220B4B1A6040320A4B1A6001320A4B1A601123236010BD30001040000301400000014040FF00800403014041FF008028000340080101400401014031
:4000800010B572B690221204124B1A600022124B1A60FF23114A1360C0218902104A1160104A1360FE21104A1160104A1360104A1360104A1360104A1360104A13600B22AF
:4000C0000F4B1A6004320F4B1A60FFF7A7FF00F027FC10BD000002400003024000000440080004401800044000010440180104400002044018020440000304401803044047
:40010000000404401804044010B5064C2378002B07D1054B002B02D0044800E000BF0123237010BD08010020000000003C2B0000084B10B5002B03D00749084800E000BFC1
:4001400007480368002B00D110BD064B002BFBD09847F9E7000000000C0100203C2B0000800000200000000010B502F056FA024B186002F056FA10BD2401002000B583B0BA
:4001800000230193084B1868282102F00DFCFA239B00584301A900F009FE002802D1024B019A1A6003B000BD8400002070B50C4C9623DB002360FFF7E1FF2368094DAB60B6
:4001C000FA235B012360FFF7D9FF2368EB6000F091FE2368C01800F081FE00F093FE70BD840000202401002070B562B600F002FC00F0A4FEFFF7DAFF57494623C85A574A1F
:400200001023181A10705A20085A181A50706E20085A181A90708220085A181AD0709620085A181A1071AA20085A181A5071BE20085A181A9071D220085A181AD071E62049
:40024000085A181A1072FA20085A181A507287204000085A181A907291204000085A181AD0729B204000085A181A1073A5204000085A181A5073AF204000085A181A9073A0
:40028000B9204000085A181AD073C3204000085A181A1074CD204000085A181A5074D7204000085A181A9074E1204000085A181AD074EB204000085A181A1075F5204000ED
:4002C000085A181A5075FF204000085A181A90752348085A181AD0752248085A181A10762148085A181A50762048085A181A90761F48085A181AD0761E48085A181A10775E
:400300001D48085A181A50771C48085A181A90771B48085A181AD0771A48085A181A202410551948095A5B1A2121535400251F3C03E00025012400E00124022C00D17AE1F3
:4003400002D8012C22D09CE2032C00D184E1042C00D18AE295E2C046F0040020C804002012020000260200003A0200004E02000062020000760200008A0200009E020000E7
:40038000B2020000C6020000DA02000001F05EF90028D2D1002101F0DFFF01F0E3FE01F055F90028FBD10021013001F0D5FF01F0D9FE01F04BF90028FBD10021023001F091
:4003C000CBFF01F0CFFE01F041F90028FBD10021033001F0C1FF01F0C5FE01F037F90028FBD10021043001F0B7FF01F0BBFE01F02DF90028FBD10021053001F0ADFF01F0F3
:40040000B1FE01F023F90028FBD10021063001F0A3FF01F0A7FE01F019F90028FBD10021073001F099FF01F09DFE01F00FF90028FBD10021083001F08FFF01F093FE01F0F0
:4004400005F90028FBD10021093001F085FF01F089FE01F0FBF80028FBD100210A3001F07BFF01F07FFE01F0F1F80028FBD100210B3001F071FF01F075FE01F0E7F8002850
:40048000FBD100210C3001F067FF01F06BFE01F0DDF80028FBD100210D3001F05DFF01F061FE01F0D3F80028FBD100210E3001F053FF01F057FE01F0C9F80028FBD100214E
:4004C0000F3001F049FF01F04DFE01F0BFF80028FBD10021103001F03FFF01F043FE01F0B5F80028FBD10021113001F035FF01F039FE01F0ABF80028FBD10021123001F0CD
:400500002BFF01F02FFE01F0A1F80028FBD10021133001F021FF01F025FE01F097F80028FBD10021143001F017FF01F01BFE01F08DF80028FBD10021153001F00DFF01F0C4
:4005400011FE01F083F80028FBD10021163001F003FF01F007FE01F079F80028FBD10021173001F0F9FE01F0FDFD01F06FF80028FBD10021183001F0EFFE01F0F3FD01F0C6
:4005800065F80028FBD10021193001F0E5FE01F0E9FD01F05BF80028FBD100211A3001F0DBFE01F0DFFD01F051F80028FBD100211B3001F0D1FE01F0D5FD01F047F8002826
:4005C000FBD100211C3001F0C7FE01F0CBFD01F03DF80028FBD100211D3001F0BDFE01F0C1FD01F033F80028FBD100211E3001F0B3FE01F0B7FD01F029F80028FBD1002183
:400600001F3001F0A9FE01F0ADFD01F01FF80028FBD10021203001F09FFE01F0A3FD01F015F80028FBD10021213001F095FE01F099FD022481E601F0F0FF944B186001F088
:4006400005F8002802D000F0A3FB00E003248F4B187801F0E6FF70E6002000F093FC012000F090FC022000F08DFC032000F08AFC042000F087FC052000F084FC062000F0A6
:4006800081FC072000F07EFC082000F07BFC092000F078FC0A2000F075FC0B2000F072FC0C2000F06FFC0D2000F06CFC0E2000F069FC0F2000F066FC102000F063FC11203C
:4006C00000F060FC122000F05DFC132000F05AFC142000F057FC152000F054FC162000F051FC172000F04EFC182000F04BFC192000F048FC1A2000F045FC1B2000F042FC3A
:400700001C2000F03FFC1D2000F03CFC1E2000F039FC1F2000F036FC202000F033FC212000F030FC5A4A5B4BD15A5B4B5980BE218900515A99805949515AD980C32189003A
:40074000515A19815649515A5981C8218900515A99815449515AD981CD218900515A19825149515A5982D2218900515A99824F49515AD982D7218900515A19834C49515A72
:400780005983DC218900515A99834A49515AD983E1218900515A19844749515A5984E6218900515A99844549515AD984EB218900515A19854249515A5985F0218900515A66
:4007C00099854049515AD985F5218900515A19863D49515A5986FA218900515A99863B49515AD986FF218900515A19873849515A59878221C900515A99873649515AD98793
:400800003549505A402158523449505A422158528721C900515A44229952002309E05A001D498A1851882E48C05C814051800133DBB2212BF3D9002405E0174B185D00F0D0
:40084000E9F80134E4B2452CF7D900F0FFFC002800D06EE50135ADB2952D00D86CE50B4BDA68204B1A60012467E5FFF77DFC074B1B79002B00D160E50022044B1A71012430
:400880005BE5002000F08CF957E5C04624010020F0040020EE0200008004002002030000160300002A0300003E03000052030000660300007A0300008E030000A203000037
:4008C000B6030000CA030000DE030000F2030000060400001A040000240400002E040000C8040020840000200B4B1B68002803D080221206134301E05B005B08064A136044
:40090000064B1B68002802D02022134301E020229343024A13607047002002402800034010B51122024B1A600120FFF7DDFF10BDC0020B4010B502F0C3F803680C2B00D1A4
:40094000FEE7FEE770B50F4E0F4D13E029686B68AC68002202E001C901C30432A242FAD1E868002202E0002102C304328242FAD11035013E002EE9D102F0A8F8FFF734FCCA
:40098000FEE7C046010000005C36000010B500230AE0032B03D89A000849505800E008489900084A885001331F2BF2D9FFF768FB80229205044B1A6010BDC04600000000E1
:4009C000350900000000002008ED00E010B500F083F810BD10B500F02BF810BD10B5044A1368802109060B431360FFF7EFFF10BD0000094010B5064B1B78002B04D1FFF78A
:400A0000E9FF0122024B1A70FFF7E8FF10BDC04634010020044B1B681F221340082BF9D0024B18607047C0460802094040020940154A164B1A600023154A13601549164A20
:400A40001160072215490A6015490A60154A13600121154A11601549154A1160154A13600421154A1160154A1360154A1360154A1360154A1360154A1360154A136012682D
:400A8000144B1A807047C0460B000002000009404000094001000A00480009400003094004030940100309404400094007000080000209400402094050000940880E0940E7
:400AC000C80E0940480F0940080F0940C80F0940880F094036010020064A1168064B0B40902109040B431360044B1A88044B1A607047C04600000240FFFF0FFF3601002080
:400B0000880F09400C4B1B689B001C22134018330A4A1268920803210A40D34008490868084A02400A60084A944663441B78DBB2064A13607047C046080F034028000340A4
:400B400000000740FFFFFFBFCDF1FF0F0C0F0340034B18688023DB05184000D001207047000007401F2318401E3B8340014A13607047C04600E100E01F2318401E3B834008
:400B8000014A13607047C04680E100E01F2318401E3B8340014A13607047C04680E200E001BE704710B5040006E0084B586801F02BFD074B9C46644480231B029C42F4D86F
:400BC000024B9868604301F01FFD10BD880000200080FFFF70B582B000F06EF900284DD001F01BFD0500264B1A6892001C231A401832244B1B689B0803210B40DA4000215D
:400C0000214B1960214C2168214B0B4021494A438021C9018C466244D20B013A5205520D1343A0225203134323601B4B1B680193302001F0F9FC194A13688021C9050B43E6
:400C400013602668164B1E40002407E00120FFF7A9FF1034A30533430C4A1360EE2CF5D90120FFF79FFFFF239B051E43074B1E60019A094B1A60280001F0D3FC02B070BDFF
:400C8000080F0340280003400C0F03400800074000F800C040420F003000104000000740FFFF3FC0F0B583B0040018280BD01C2809D0202807D0242805D0282803D02C28EA
:400CC00001D0302849D101F0A8FC0190FFF740FF002803D0FFF716FF012600E00026214A136807218B4313601F4BE3181B78DBB21E4A13601E4A13688B4313601D48036880
:400D00007F22934319001C4BE3181B7813400B430360322001F078FC182C16D9114F3B680725AB431A0023001C3B9B082B4013433B60322001F068FC3A68AA432300183BE4
:400D40009B082C001C4014433C60012E01D1FFF741FF019801F065FC02E00020FFF720FF03B0F0BD080F0340CDF1FF0F0C0F0340100F0340180F0340B4F1FF0F10B5034BA6
:400D80001B7B584301F040FC10BDC0468800002010B501F042FC044A136804218B43136030BF01F03EFC10BD10ED00E070B50C00334B1A68334B134080225200934250D187
:400DC000314B1A68314B9A424DD1314B98424CD863284CD900294CD02E4B1B68002B36D02D4B1B68002B46DA2C4B1B68002B44D0642568432A4BC5182A49280001F0D4FD81
:400E00000600294B984211D9244B1868274B19684843890A01F0C8FD282101F0C5FD06002349280001F0C0FD70430BE01B4B18681E4B19684843890A01F0B6FD70431D4931
:400E400001F0B2FD20600020124B186016E0174B1B689B0A104A136001220E4B1A6007200CE011200AE0112008E0112006E0112004E0112002E0072000E0112070BDC04629
:400E8000340003400F0F0000180003400809000080841E00380100201C0003402000034071020000C409000060D1000098000020A0252600409C0000034B1B68002B01DA2D
:400EC000012000E00020704700000740014A024B1A6070476588EDAC380003400004000C034A13681B0C1B04184310607047C04640000340024B18680004000C7047C04646
:400F000040000340024A116801230B43136070474C00034010B5084B1B78002B06D100F051F900F0A3F90122034B1A7000F052F800F032FE10BDC0464001002070B5FFF727
:400F4000E9FF051E02D100F05FFD0500002D02D100F0BAFB0500002D02D00BE0013C00E0074C00F073FB002801D0002CF6D1002C00D1102500F044FA00F0C4F9280070BD92
:400F8000404B4C0070B50500212801D8002400E00124002C0AD16B0904339B000B4A9B581F222A40D340DB0700D41134002C0AD16E01074BF618300000F05EF80400310016
:400FC000280000F0D3F8200070BDC046F0040020642B000070B5002309E012499A1D9200002050501A1D9200013850500133012BF3D90D4C222311E06668A27E094B5B1970
:40100000203300211970012A06D12069002803D0F179228B01F089FD20342B005D1E002BEAD170BDF0040020642B000010B582B0040008001300628869460A80628A01F0D9
:401040003FFC6B461B8863806B469B7823716B46DB7863716B461B79A37102B010BDC04630B50B884A889C1A0025CD800079844200DDCC8030BDC046F0B55F4656464D46AA
:40108000E0B482B08246837E062B02D10122934601E0002293465246D26891465246946856680093D76900250023019321E0009A2100484600F05AFA718A20883A0001F0BF
:4010C0002CFC2A0039003000FFF7B0FF0C37009A2100300000F0D8F9019021003000FFF7BFFF0A345B46002B02D106339C46E144013553461B8B9D42D9D3019802B01CBCCB
:4011000091469A46A346F0BDF0B50A8B8D684F680B69012125E00C00044003D17E88BA79B21802E07A88BE79921BEE88B24201D3002200E00A00A24202D01E78013E1E708F
:40114000A24202D01C78002C07D188431043002A01D1FA7900E001221A7049000A3501336246541EA446002AD5D1F0BD70B504008A7E134B1B1820331D78012A04D12800F8
:40118000FFF7C2FF050002E00020FFF709FD0C4B1B1920331D7063091F2214401E3AA240002D06D1064906339B0058589043585005E0034906339B00585802435A5070BDAC
:4011C000F004002070B51A4C1A4A0021200001F0ACFC194B238080235B006380174BA38008224223E252053A154BE254023A4423E25420004630AA2292001249643101F05F
:401200008BFC11490C00243422230CE0A268238B04E00B78537201310A320300581E002BF7D120342B005D1E002BEFD170BDC046F00400204C0400006A630000B80B00006E
:4012400049040000402F0000402B00000223002005E0931D9B0004495B58184313005A1E002BF6D17047C046F00400200023024AD380024A13607047F00400207404002045
:40128000FF231940062902D08318002119715300195AC31859808218002313727047C04670B506000D00012305E0220029003000FFF7E6FF23005C1E002BF6D170BDC0469A
:4012C00010B54001054B1B188A00511848009A6894466044997EFFF7E3FF10BD642B000070B505004301064AD3181B8B04E021002800FFF7E5FF23005C1E002BF7D170BD4C
:40130000642B000010B5222303E02000FFF7E8FF23005C1E002BF8D110BDC04670B5012309E0FF231340062B04D063005E5A1B195D002E5223005C1E002BF2D170BDC0463A
:40134000F0B501230CE0FF231340062B07D065006F5A2E197300C3185F806D5A9D8023005C1E002BEFD1F0BDF0B557464E464546E0B4824643011B4AD3185A6890461B8BF1
:4013800028E053465A01174B9B18A200121951009A685718DA681500610009198800D969894681449E7E062E03D063001B195D005519320039002800FFF7B0FF320039002D
:4013C0002800FFF7BDFF4346598A38884A4601F098FA23005C1E002BD3D11CBC90469946A246F0BD642B000010B5222303E02000FFF7BAFF23005C1E002BF8D110BDC04697
:4014000010B5FFF7F1FF10BD884202D9030008001900914200D91100884200D208007047F0B54F464646C0B483B001900F009046012317E0FF2342461340062B11D06E00D8
:40144000F05B73195C00019B9C46644463889946A2881900FFF7D8FF4B46A380F35B6380B8532B005D1E002BE4D103B00CBC90469946F0BD9840504380235B009A1A514335
:401480004018000A7047C046F0B5474680B482B007000E00019201233EE06300985BF3185988884205D3431A321900251572012201E00B1A0022002A11D17D79AB420ED932
:4014C00033191B7A3A7A934205D3220001993000FFF7D6FE1FE03219013313721BE03D79AB4204D97D79AB4215D8002A13D1FF23019A1340062B0ED00902331998461B79B0
:40150000194308230122FFF7B5FF020A6300F3185A804346187123005C1E002BBDD1002002B004BC9046F0BDF0B5474680B407000E009046012313E0FF2342461340062BF0
:401540000DD06500A85B2A195300D95B00238022FFF790FF80B22A195300D853A85323005C1E002BE8D104BC9046F0BD70B504000D001600FFF754FF320029002000FFF75A
:40158000D3FF70BD70B504000D009F2808D91B4B994205D91A49280001F08CFA002921D09F2C09D9FF235B009D4205D91549280001F080FA002917D09F2C07D97E2D05D9F7
:4015C0007F21280001F076FA00290FD09F2C0FD93E2D0FD93F21280001F06CFA00290BD000200AE0042008E0032006E0022004E0002002E0002000E0012070BDFE0300005B
:40160000FF030000FF01000010B54B1EDBB2032B01D8102300E00023002911D0002B11D0642253430100180001F0BEF9002301E0013340000928FBD90A2804D9013B02E013
:40164000002300E00023D8B210BDC046024BDB68802018407047C046F004002010B50E4BDB68DB030DD421280DD8430904339B00094A9B581F220240D340DB0705D4012466
:4016800004E0112402E0012400E00024002C01D100F038FE200010BDF004002010B5084BDB68DB0307D4074B1B78012B05D100F083FD002003E0112001E00120404210BDF1
:4016C000F00400207804002010B50F4BDB681B0618D400240120404211E02000FFF7BEFF00280BD1202C03D80122084B5A7002E00022064B5A70FFF7D1FF04E00134212C8A
:40170000EBD900E0112010BDF004002078040020F8B54F464646C0B401280BD0022804D0002399460633984607E0052399460023984602E0002399469846144C00251FE0C5
:4017400000F06BFF2268136821698B43136066683268A77E0721B9408A434146B9400A433260227E494691400B4322681360A268136861698B43136000F053FF1C340135C2
:40178000212DDDD90CBC90469946F8BD4C32000010B51B4A93780133DBB293709078C0B2FFF75CFF041E09D1154B9B78212B02D10022134B5A70FFF771FF1EE0104B9B7807
:4017C000212B11D10F4B1A8901321A81DA6880218A43DA60DA681202120ADA60DA6804061443DC60002408E0064AD3681B021B0AD360D16803060B43D360002CC9D110BD19
:4018000078040020F0040020074A084B1A6001380002074B1860054B1B68002BFBDB054A024B1A607047C04640000040000001400003014040FF00804001024B1818436801
:4018400098897047642B00000203121A01238B40013B9A4205D90202101A834203D3052002E0062000E00020C0B2704770B50E00FFF7E2FF05003188002200F0B7FB01003F
:401880002800FFF77FFE041E04D168003188FFF7DBFF040021002800FFF7B6FE0001C0B22043B07370BDC046F0B5474680B488B0050043014A4AD3185C689F684423494A57
:4018C000D15C494801F070F88046FA20800043465843464901F068F8FA231B01984200D81800434B9C466044FA21890001F05CF80600C30700D5013601AB4246DA82FA22E5
:4019000092001A823B4A5A82228A9A822200123204920C2323803849404601F045F8A0810023A3735521280000F0FCFD002100239C46002207E07B7A994202D239888C4606
:4019400019000A3701326B012548C318DB7E9A42F1D3637A01AFBB76F976A37ADB00274AD3185B6802930C239846A04443460393FA239B0060465843214901F015F8388328
:40198000380000F02FFF019001E05B00A381A3899E42FAD81B4B984201D8002600E006265521280000F0BEFDA37ADB00134AD3185B6801A84360637A83764346836000F0ED
:4019C00041FF208021002800FFF750FF5521280000F0A8FD304308B004BC9046F0BDC046642B0000F0040020C05D000070170000E7030000E5070000DC050000043600009A
:401A0000FF0F0000880D010070B50024002504E02000FFF749FF05430134212CF8D9280070BDC04610B5002407E06301044AD31859682000FFF71AFF0134212CF5D910BDE2
:401A4000642B0000F0B55F4656464D464446F0B483B001902B4E3468F0231B011C400094294F3B68042292461A409146274C2568E0235B001D40AB4600F0CFFD3368244A7D
:401A800090461340336000F0CCFD00F0C6FD3B68524693433B6000F0C4FD00F0BEFD23681C4D2B40C02252001343236000F0B9FD6B469888FFF762F900F0AFFD23681D403E
:401AC0005A461543256000F0ACFD00F0A6FD3B68524693434A4613433B6000F0A2FD00F09CFD336842461A401400009B1C43346000F097FD03B03CBC90469946A246AB46B7
:401B0000F0BDC046000402400004044008040440FFF0FFFF3FFEFFFF70B505000E00140000F07BFD2B685C4034405C402C6000F078FD70BD10B5074A136801218B431360E7
:401B40000022F02109010448FFF7E6FF00F0C8FB10BDC046A8020B400004024010B504000C4B1B78834214D0012B01D1FFF7E2FF012C05D100F066F90122064B1A7008E0D7
:401B8000022C06D0042C04D0032C02D00022014B1A7010BD7804002010B5FFF743FF0020FFF7B6FD0021054B054AD1540020FFF7D5FF0120FFF7D2FF002010BD4904000004
:401BC000F004002001390843014B18607047C04600020B4010B5104B1B68702293431C0044230E4AD15C0E4800F0DEFE0D4B984204D820232343084A13600BE0084B9842B5
:401C000004D830232343044A136003E040232343014A136010BDC0469C000020F004002000366E01001BB700034A044B1A60C5225204034B1A60704700008F01C0010B405C
:401C4000C4010B40F0B5474680B482B005004301214AD3185A689C68138801279F40013F0A2902D908000A3800E000200A23984688444346642B01D96423984678436421AF
:401C800000F092FE060040467843642100F08CFE020000270023019313E04B00185B864208D80B00824201D207E00123591E002BF3D104E00623019301E0062301930A3495
:401CC00001376B010449CB181B8B9F42EDD3019802B004BC9046F0BD642B0000F8B54F464646C0B4070046688468B57AA84601237F200022914608E0B3185B7A994500D2B8
:401D00009946984200D9180013005A1E002BF3D100210CE0A3185B7A984200D91800130000E001235A1E002BF4D10A3401313B8B9942F6D34346002B13D0132813D80D49AB
:401D4000EA008A1850686B1EDB00CB18596800F02BFE4F4647437E2F07D8013DB572012004E0002002E0002000E000200CBC90469946F8BD04360000F0B55F4656464D46E2
:401D8000E0B482B007008A4643689B461B8801229A401300013B019301234AE05B465B195B7A9946BB686A00D05A4C46002208E05919497A8C4202D96800C05A0C000A3364
:401DC0000132F97E8A42F3D364235843019900F0EBFD64306043514600F0E6FD814500D381465B465B194A465A72BC6800261CE06B00185B64235843019900F0D5FD64306B
:401E000063195B7A584353464A465343984203D2631900225A7206E0C01A3230642100F0C3FD631958720A340136FB7E9E42DFD32B005D1E002BB1D102B01CBC91469A462D
:401E4000A346F0BDF8B5354B354A9A5C8921C900585C824207D0FFF75BFC304B8922D200995C2F4A99540120FFF7ECFDC02212032C4B1A602C4D2B682C4E33432B60002435
:401E80002B4B1C602B4B1C6010222B4B1A602B4B1C602B4B1C602B4B1C602B4B1C602B4F3C602B4B1C60C022D200F02109012948FFF732FE002204212748FFF72DFE274A9E
:401EC0001368802149010B4313600122244B1A602B6833432B6080235B04224A13602249224A1160224A14603B60FFF79DFE44230A4AD05CFFF788FCFFF76CFE1D4B1B683A
:401F00001D4A13431D4A13600F221D4B1A601D4B1C60053A1C4B1A60F8BDC046F00400204904000004020B40A8020B4001000010F4000B40B4020B40C0020B4020030B40C5
:401F400084010B4088020B4080020B4084020B4080010B40000402400004044094020B40A0020B40A4020B404112000088010B4090020B409C0000200010008000000B406A
:401F800000030B40F0010B4010030B40F8B50700837ADB000F4A9D5800F03FFB0E4B1A680E4C22400E490E78BF19797A0A432A431A6000F036FB00F030FB0A490B6823405D
:401FC000094A12689619727A13432B430B6000F028FBF8BD04360000C0010B4080FF3FFC34360000C4010B403C09002010B50300140001208840102900D11D38002B02D082
:40200000190000F0D1FC053C012C00D84008002800D1013010BDC04610B50C4B1B785B010B4AD3185B6899899B7B18045A1F012A02D8802292041043053BDBB2012B02D801
:40204000490800D10131FFF7BDFD10BD7A040020642B000010B50300808919889A7BFFF7C5FF0004000C014B186010BD14030B4010B50A20FEF780FD01222C4B1A60002386
:402080002B490B602B482C4908602C490B6006202B4908602B490A602B490A60832149002A4A11602A4A136003222A4B1A60F02300E0013B254A1268520701D4002BF8D14C
:4020C000002B02D10822234B1A60832252001F4B1A600A20FEF75AFD0A20FEF743FD0023184A1360144A1360144A1360144A13605021154A11604F390D4A11600B4A13605C
:40210000154A1368802149040B4313600222104B1A60F02300E0013B104A1268520701D0002BF8D10E4A0B4B1A6010BD80010B408C010B4001010100B0020B40B4020B4062
:4021400088020B4080020B40F0010B40F0000B40F8000B4040030B4000020B4000000B400103000010B5054AD36805490B43D3600A20FEF703FEFFF77BFF10BDF00400204A
:402180008000010070B50400857E067E00F045FA23681B680F22B24093431A000423B3401343666832680721A9408A4332602268136000F036FA70BDF8B51E4B1B785B0107
:4021C0001D4AD3185F681D4B1D4A9A5C8921C900585C824207D0FFF79BFA184B8922D200995C174A9954174C00232370114E3378114D5B01EB1899682378DBB29A00D31803
:402200005A008A18104B1A603800FFF7BFFE33785B0158592278D2B2D3009A1A9300C0180A4B1860FFF7AEFF094800F0DDF9FFF799FFF8BD7A040020642B0000F00400200F
:40224000490400007B0400203C09002040090020A127000010B54001054BC058CB00591A8B00C018034B1860FFF78CFF10BDC046642B000040090020F8B50400067E857E83
:4022800000F0CBF9636819680723AB40994327683B680F22B24093433B600F4A0F4FBA5C002A05D10623AB4019436368196008E0022A06D10332B2401343626811602268B9
:4022C0001360A1680B68647E0122A24093430B6000F0A7F9F8BDC04649040000F004002010B5064B1B78012B06D1054B1868FFF7C3FF0022014B1A7010BDC0467C0400207C
:402300004009002070B5104E4301F3185D68C0B20E4C20700120FFF721FCFFF7E1FF23785B019A590A4B1A600A4BDA687F218A43DA602178DA680A43DA602800FFF78AFE38
:40234000FFF76AFE70BDC046642B00007A04002040090020F004002070B54301134AD3185D68C9B2124C217099682378DBB29A00D3185A008A180F4B1A60FFF7C3FF2800E4
:40238000FFF704FE2378DBB20B49DA00D31A98000B689C4660440860FFF7F4FE0122074B1A70074800F020F970BDC046642B00007B0400203C090020400900207C040020DB
:4023C00075270000F0B5574680B484B001904301514AD3185B689A461D000935012303E0002003AB985413005A1E002BF8D153461A8801239340013B59430800642100F077
:40240000D3FA0600002300936EE0019B5B01424AD3189F68009A9300944663445A00BF18012304E04023AB54B9184B7213005A1E002BF7D1402400990198FFF78DFF0120C1
:40244000FFF700FBFFF78EFE344B00E0013B344AD26812060DD5002BF8D101330AE05300DB5B9E4203D9A9180B78A3430B70130000E001235A1E002BF1D1640801330FE095
:40248000A9180B782343DBB20B70B8184372002C05D10B78002B02D101330B70437213005A1E002BECD1002CC5D1013307E003AB9B181878A95C884200D2197013005A1E08
:4024C000002BF4D100990198FFF746FFFFF74AFE124B00E0013B124AD268120601D5002BF8D1009B01330093019B5B010A4AD3181B8B009A9A4288D3012305E003AB995C94
:4025000053469B18597213005A1E002BF6D104B004BC9246F0BDC046642B000000A60E00F004002070B504000D004601174BF618174BDB68DB0324D4736804229A72290013
:402540002000FFF73FFF3000FFF7C8FB0028F6D129003000FFF710FC2000FFF7D3FEFFF72BFE0C4B00E0013B094AD268120601D5002BF8D1002B06D029002000FFF762FB4F
:4025800002E0112000E0102070BDC046642B0000F004002000366E01014B98667047C0460000002010B5040000F037F8044A1168044B0B40A4051C43146000F032F810BDAA
:4025C00008E400E0FFFF3FFF8022D200014B1A607047C04600E100E08022D200014B1A607047C04680E100E010B50400FFF7F4FF2000FFF7D1FF0320FFF7D4FFFFF7E4FF86
:4026000010BDC046000000000230800803D001300238FCD1C046C0467047EFF3108072B6704780F31088704770B50400FFF7F5FF0500102C05D8104A136803218B431360C1
:4026400016E0202C07D80C490B6803229343023A13430B600CE0302C07D807490B6803229343013A13430B6002E00020FEF798FA2800FFF7D6FF70BD300010400E4B1B7883
:402680005B010E4AD3185B680D4A11680A04120C188801238340013B9A4206D2094B1A68094B1B785B00D15205E0064A1168064A127852008B5270477A040020642B00006F
:4026C000D0000B403C0900203436000070B5224B1A78224952018A1850681B785B01CB181A7E013A1E4B1B78DBB29A421CD91C4C23780133DBB22370174D2B785B01CB1818
:4027000099682378DBB29A00D3185A008A18154B1A60FFF73BFC2878C0B22178C9B2FFF799FDFFF7A5FC16E000220D4B1A700E4AD1680E4B0B40D3600D4B1B78012B02D153
:40274000FFF726F807E0084BDA6880218A43DA601A8901321A8170BD7A040020642B00007B0400203C090020F0040020FFFFFEFF7904002010B583225200064B1A60FFF729
:402780007DFF054B1A8901321A81D968034A0A40DA6010BDF0000B40F00400207FFFFEFF10B50C4B1B785B010B4A9C580B4B1A78D2B2D1008A1A9300E41883225200084B25
:4027C0001A60FFF75BFF2000FFF756FDFFF77EFF10BDC0467A040020642B00007B040020F0000B40F7B5FA278368C58A0193038B867EBF005E43C37E04007B43F618019B1F
:402800002800198800F0D0F881B2606800F0CCF8618A704300F0C8F80600208A3900704300F0C2F80649684300F0BEF80123002802D040085B00FAE7019A30001380FEBD79
:4028400000E1F50570B50400FA21438A807E1D04ED1A63688900584300F0A6F80100280000F0A2F8A36805001988E08A00F09CF880B26843104900F097F8A38A0A215843CF
:4028800000F092F800230D4A216810258A425B410222D31A62325343984203D9013D4008062DF9D14B236421584300F07DF8E4682080E8B270BDC046A0860100A7610000AF
:4028C00010B50024A34200D00C880388101C9B009BB29A4200D2181C83B2221C9C4200D2021C93B20A805A08FF2A01D9FF2200E0D2B28A70CA70DB08FF2B00D9FF230B7173
:4029000010BD8B0813800F2393720023C90851809080D0801081D3727047937A30B594885B00041B9080DBB2002C01DB937202E00133937264420F23957A1D405388957248
:40294000A34203D9012B03D9013B00E0013353800F2D05D0002D03D053889D00AC4204D90023D0801081D3721DE0D488844201D9D08003E01489844200D21081D07A092861
:4029800002D80130D0720EE01089D488001B80B2834204D989088B4203D9013B00E0013353805388138030BD002243088B4274D303098B425FD3030A8B4244D3030B8B42E8
:4029C00028D3030C8B420DD3FF22090212BA030C8B4202D31212090265D0030B8B4219D300E0090AC30B8B4201D3CB03C01A5241830B8B4201D38B03C01A5241430B8B426A
:402A000001D34B03C01A5241030B8B4201D30B03C01A5241C30A8B4201D3CB02C01A5241830A8B4201D38B02C01A5241430A8B4201D34B02C01A5241030A8B4201D30B02AA
:402A4000C01A5241CDD2C3098B4201D3CB01C01A524183098B4201D38B01C01A524143098B4201D34B01C01A524103098B4201D30B01C01A5241C3088B4201D3CB00C01AA1
:402A8000524183088B4201D38B00C01A524143088B4201D34B00C01A5241411A00D20146524110467047FFE701B5002000F006F802BDC0460029F7D076E770477047C04677
:402AC000014B18687047C046000100200E4B70B500251E000D4CE41AA410A54204D0AB00F35898470135F8E700F0A6FD084B00251E00084CE41AA410A54204D0AB00F358DB
:402B000098470135F8E770BD4436000044360000443600004C360000002310B59A4203D0CC5CC4540133F9E710BD03008218934202D019700133FAE7704700000000000033
:402B40002020202020202020202020202020202020202020202020202020202020202020202000004C32000036050020DE0700204C02002070040020012800000100010109
:402B8000E0030020683200004A050020E8070020440200206C0400200128000001000101D4030020843200005E050020F20700203C02002068040020012800000100010179
:402BC000C8030020A032000072050020FC07002034020020640400200128000001000101BC030020BC32000086050020060800202C020020600400200128000001000101B0
:402C0000B0030020D83200009A05002010080020240200205C0400200128000001000101A4030020F4320000AE0500201A0800201C020020580400200128000001000101E6
:402C40009803002010330000C205002024080020140200205404002001280000010001018C0300202C330000D60500202E0800200C0200205004002001280000010001011C
:402C80008003002048330000EA05002038080020040200204C04002001280000010001017403002064330000FE05002042080020FC01002048040020012800000100010155
:402CC0006803002080330000120600204C080020F40100204404002001280000010001015C0300209C3300002606002056080020EC0100204004002001280000010001018C
:402D000050030020B83300003A06002060080020E40100203C040020012800000100010144030020D43300004E0600206A080020DC010020380400200128000001000101C3
:402D400038030020F03300006206002074080020D40100203404002001280000010001012C0300200C340000760600207E080020CC010020300400200128000001000101FA
:402D800020030020283400008A06002088080020C40100202C040020012800000100010114030020443400009E06002092080020BC01002028040020012800000100010131
:402DC0000803002060340000B20600209C080020B4010020240400200128000001000101FC0200207C340000C6060020A6080020AC0100202004002001280000010001016A
:402E0000F002002098340000DA060020B0080020A40100201C0400200128000001000101E4020020B4340000EE060020BA0800209C010020180400200128000001000101A2
:402E4000D8020020D034000002070020C408002094010020140400200128000001000101CC020020EC34000016070020CE0800208C010020100400200128000001000101D8
:402E8000C0020020083500002A070020D8080020840100200C0400200128000001000101B4020020243500003E070020E20800207C0100200804002001280000010001010E
:402EC000A80200204035000052070020EC080020740100200404002001280000010001019C0200205C35000066070020F60800206C01002000040020012800000100010146
:402F000090020020783500007A0700200009002064010020FC030020012800000100010184020020943500008E0700200A0900205C010020F803002001280000010001017D
:402F400078020020B0350000A20700201409002054010020F403002001280000010001016C020020CC350000B60700201E0900204C010020F00300200128000001000101B5
:402F800060020020E8350000CA0700202809002044010020EC0300200128000001000101540200200C00640028280A031E20040004000000E80300000C00640028280A034F
:402FC0001E20040004000000E80300000C00640028280A031E20040004000000E80300000C00640028280A031E20040004000000E80300000C00640028280A031E20040095
:4030000004000000E80300000C00640028280A031E20040004000000E80300000C00640028280A031E20040004000000E80300000C00640028280A031E2004000400000092
:40304000E80300000C00640028280A031E20040004000000E80300000C00640028280A031E20040004000000E80300000C00640028280A031E20040004000000E80300006B
:403080000C00640028280A031E20040004000000E80300000C00640028280A031E20040004000000E80300000C00640028280A031E20040004000000E80300000C006400A6
:4030C00028280A031E20040004000000E80300000C00640028280A031E20040004000000E80300000C00640028280A031E20040004000000E80300000C00640028280A0379
:403100001E20040004000000E80300000C00640028280A031E20040004000000E80300000C00640028280A031E20040004000000E80300000C00640028280A031E20040053
:4031400004000000E80300000C00640028280A031E20040004000000E80300000C00640028280A031E20040004000000E80300000C00640028280A031E2004000400000051
:40318000E80300000C00640028280A031E20040004000000E80300000C00640028280A031E20040004000000E80300000C00640028280A031E20040004000000E80300002A
:4031C0000C00640028280A031E20040004000000E80300000C00640028280A031E20040004000000E80300000C00640028280A031E20040004000000E80300000C00640065
:4032000028280A031E20040004000000E80300000C00640028280A031E20040004000000E80300000C00640028280A031E20040004000000E80300000C00640028280A0337
:403240001E20040004000000E8030000000102400801044000010440040104400F000000010000000000000000010240080104400001044004010440F000000002000000DF
:403280000401030000010240080104400001044004010440000F000004000000080206000001024008010440000104400401044000F00000080000000C0309000001024054
:4032C00008010440000104400401044000000F001000000010040C00000102400801044000010440040104400000F0002000000014050F0000010240080104400001044089
:40330000040104400000000F400000001806120000010240080104400001044004010440000000F0800000001C071500000202400802044000020440040204400F000000CE
:40334000010000000000000000020240080204400002044004020440F0000000020000000401030000020240080204400002044004020440000F00000400000008020600EB
:403380000002024008020440000204400402044000F00000080000000C0309000002024008020440000204400402044000000F001000000010040C000002024008020440E8
:4033C00000020440040204400000F0002000000014050F00000202400802044000020440040204400000000F40000000180612000002024008020440000204400402044042
:40340000000000F0800000001C071500000302400803044000030440040304400F000000010000000000000000030240080304400003044004030440F00000000200000096
:403440000401030000030240080304400003044004030440000F000004000000080206000003024008030440000304400403044000F00000080000000C0309000003024080
:4034800008030440000304400403044000000F001000000010040C00000302400803044000030440040304400000F0002000000014050F00000302400803044000030440B3
:4034C000040304400000000F400000001806120000030240080304400003044004030440000000F0800000001C071500000402400804044000040440040404400F000000FB
:40350000010000000000000000040240080404400004044004040440F000000002000000040103000004024008040440000404400404044000F00000080000000C0309002C
:40354000000002400800044000000440040004400F000000010000000000000000000240080004400000044004000440F0000000020000000401030000000240080004407F
:403580000000044004000440000F000004000000080206000000024008000440000004400400044000F00000080000000C0309000000024008000440000004400400044018
:4035C00000000F001000000010040C00000002400800044000000440040004400000000F400000001806120000000240080004400000044004000440000000F08000000069
:403600001C071500000000017C92000000000003F824010000004001E093040000004003C027090000008001009F240000008003003E490000430000F8B5C046F8BC08BC7C
:403640009E467047310100008D090000F8B5C046F8BC08BC9E46704709010000703600008000002088000000400800000000000000000000B0040000010000000000E02E3E
:40368000C05D00001800000000366E0120000004000000000000000000000000000000000000000000000000000000000000000035360000000000000000000000000000A1
:4036C000000000000000000000000000000000000000000000000000000000000000000000000000000000000000000000000000A00000200000000000000000000000000A
:403700000000000000000000000000000000000000000000000000000000000000000000000000000000000000000000000000000000000000000000000000000000000089
:403740000000000000000000000000000000000000000000000000000000000000000000000000000000000000000000000000000000000000000000000000000000000049
:403780000000000000000000000000000000000000000000000000000000000000000000000000000000000000000000000000000000000000000000000000000000000009
:4037C00000000000000000000000000000000000000000000000000000000000000000000000000000000000000000000000000000000000000000000000000000000000C9
