:400000000010002011000000C5080000C508000010B500F049FF00F05DFC000070B572B690220025214B12041A60214BC0211D60FF23204A890213601F4A204C1160FE21C6
:400040001F4A182013601F4A11601F4A13601F4A13601F4A13601F4A13601F4A13600B221E4B1A601E4B04321A601223236000F02DFEFE2280211B4B12021A601A4B1B4ACB
:4000800009011A601A4A012011601A4A1A604022194B1D60194B1A60194B01321A601123184A2360136000F0F1FB70BD00000240000302400000044008000440300010408A
:4000C000180004400001044018010440000204401802044000030440180304400004044018040440000301400000014040FF00800403014041FF008028000340080101400F
:4001000004010140C0020B4010B5064C2378002B07D1054B002B02D0044800E000BF0123237010BD0801002000000000FC260000084B10B5002B03D00749084800E000BF5B
:4001400007480368002B00D110BD064B002BFBD09847F9E7000000000C010020FC260000800000200000000010B502F00EF8024B186002F00EF810BD24010020002313B590
:40018000084C28212068019302F0EEF9FA239B00584301A900F00EFE002801D1019B236013BDC04684000020962370B50B4CDB002360FFF7E3FF2368094DAB60FA235B0151
:4001C0002360FFF7DBFF2368EB6000F07FFE2368C01800F071FE00F07FFE70BD8400002024010020F7B562B600F0C8FB00F08EFEFFF7DAFF554C564A23000833D98F102328
:40020000591A117021005A3109880026591A517021006E3109880125591A9170210082310988591AD170210096310988591A11712100AA310988591A51712100BE3109885E
:40024000591A91712100D2310988591AD1712100E6310988591A11722100FA310988591A51722100FE31088A181A9072888C181AD072098F501C591A1173A5214900615A6A
:40028000591A5173AF214900615A591A9173B9214900615A591AD173C3214900615A591A1174CD214900615A591A5174D7214900615A591A9174E1214900615A591AD174EB
:4002C000EB214900615A591A1175F5214900615A591A5175FF214900615A591A91751D49615A591AD1751C49615A591A11761B49615A591A51761A49615A591A91761949BE
:40030000615A591AD1761849615A591A11771749615A591A51771649615A591A91771549615A591AD1771449615A591AC1771349615A01925B1A911CCB77681E0328FDD81B
:4003400002F008F91E00520163017002A40400202804002012020000260200003A0200004E02000062020000760200008A0200009E020000B2020000C6020000DA02000007
:4003800001F028F80028D8D1010001F063FD01F06FFC01F01FF8011EFBD1012001F05AFD01F066FC01F016F8011EFBD1022001F051FD01F05DFC01F00DF8011EFBD1032065
:4003C00001F048FD01F054FC01F004F8011EFBD1042001F03FFD01F04BFC00F0FBFF011EFBD1052001F036FD01F042FC00F0F2FF011EFBD1062001F02DFD01F039FC00F0B5
:40040000E9FF011EFBD1072001F024FD01F030FC00F0E0FF011EFBD1082001F01BFD01F027FC00F0D7FF011EFBD1092001F012FD01F01EFC00F0CEFF011EFBD10A2001F0EC
:4004400009FD01F015FC00F0C5FF011EFBD10B2001F000FD01F00CFC00F0BCFF011EFBD10C2001F0F7FC01F003FC00F0B3FF011EFBD10D2001F0EEFC01F0FAFB00F0AAFF19
:40048000011EFBD10E2001F0E5FC01F0F1FB00F0A1FF011EFBD10F2001F0DCFC01F0E8FB00F098FF011EFBD1102001F0D3FC01F0DFFB00F08FFF011EFBD1112001F0CAFCAF
:4004C00001F0D6FB00F086FF011EFBD1122001F0C1FC01F0CDFB00F07DFF011EFBD1132001F0B8FC01F0C4FB00F074FF011EFBD1142001F0AFFC01F0BBFB00F06BFF011E24
:40050000FBD1152001F0A6FC01F0B2FB00F062FF011EFBD1162001F09DFC01F0A9FB00F059FF011EFBD1172001F094FC01F0A0FB00F050FF011EFBD1182001F08BFC01F0B6
:4005400097FB00F047FF011EFBD1192001F082FC01F08EFB00F03EFF011EFBD11A2001F079FC01F085FB00F035FF011EFBD11B2001F070FC01F07CFB00F02CFF011EFBD168
:400580001C2001F067FC01F073FB00F023FF011EFBD11D2001F05EFC01F06AFB00F01AFF011EFBD11E2001F055FC01F061FB00F011FF011EFBD11F2001F04CFC01F058FB09
:4005C00000F008FF011EFBD1202001F043FC01F04FFB00F0FFFE011EFBD1212001F03AFC022501F045FBA8E601F0CFFD924F386000F0F0FE002802D000F0CEFB00E0032579
:400600003868C0B201F0C5FD97E6002000F0A0FC012000F09DFC022000F09AFC032000F097FC042000F094FC052000F091FC062000F08EFC072000F08BFC082000F088FCB4
:40064000092000F085FC0A2000F082FC0B2000F07FFC0C2000F07CFC0D2000F079FC0E2000F076FC0F2000F073FC102000F070FC112000F06DFC122000F06AFC132000F0AD
:4006800067FC142000F064FC152000F061FC162000F05EFC172000F05BFC182000F058FC192000F055FC1A2000F052FC1B2000F04FFC1C2000F04CFC1D2000F049FC1E20CB
:4006C00000F046FC1F2000F043FC202000F040FC212000F03DFC594B594DE35A594A6B80BE239B00E35A5849AB80584BE35AEB80C3239B00E35A2B81554BE35A6B81C82381
:400700009B00E35AAB81534BE35AEB81CD239B00E35A2B82504BE35A6B82D2239B00E35AAB824E4BE35AEB82D7239B00E35A2B834B4BE35A6B83DC239B00E35AAB83494B1D
:40074000E35AEB83E1239B00E35A2B84464BE35A6B84E6239B00E35AAB84444BE35AEB84EB239B00E35A2B85414BE35A6B85F0239B00E35AAB853F4BE35AEB85F5239B00E7
:40078000E35A2B863C4BE35A6B86FA239B00E35AAB863A4BE35AEB86FF239B00E35A2B87374BE35A6B878223DB00E35AAB87354BE35AEB87A25AAB1CDA87615A2A1DD18744
:4007C0008721C900615AAA1DD187002201981988805C0132814019800233222AF6D1290000234631EA5C0878013382180A70452BF8D10027E85D013700F0CEF8462FF9D1FE
:4008000000F0E4FC002802D00026012595E50136B6B20125952E00D88FE5074BDA681A4B1A608AE5FFF7A0FC034B1A79002A00D183E500221A71E8E724010020EE020000EB
:40084000E0030020240400002E04000002030000160300002A0300003E03000052030000660300007A0300008E030000A2030000B6030000CA030000DE030000F2030000C2
:40088000060400001A040000840000200B4A10B51368002803D0802109060B4301E05B005B081360064B202419680A00A243002801D022000A431A6010BDC04600200240B0
:4008C0002800034010B501F0DBFE03680C2B00D1FEE7FEE7F8B500250F49104B01394A1C14D000221F685C689E68A018B24203D0B858A0500432F8E70200DE68141AA64253
:4009000001D020C2FAE710330139E8E701F0BEFEFFF768FCFEE7C046010000001C320000002370B509480A4C0A4D9A002100032B00D8A95801338150202BF6D1FFF76EFB18
:400940008022054B92051A6070BDC04600000020C50800000000000008ED00E08021064A10B5136809060B431360082000F018F900F0B2F810BDC0460000094010B5054C89
:400980002378002B03D100F03DF801232370FFF7E5FF10BD38010020134B144A30B515681C681900A54208D1114B1C681F232340082B02D00F4B186015E013680133462BD5
:4009C00000D100230C68A342FCD002210A4CC0B221600A4CE0541360094B1A680A4202D11A680A431A6030BD54040020580400200802094040020940800F09405C04002020
:400A0000880F094010B500241C4A1D4B08201A601C4B1D4A1C601D4B1A6007231C4A13601C4A136001221C4B1C601C4B1A601C4A1C4B1A6004221C4B1C601C4B1A6000F06D
:400A4000B9F80321082000F091F81949082000F085F8184B1C60184B1C60184B1C60184B1C60184B1C60184B1C601A68174B1A80174B1C60174B1C6010BDC0460B000002B5
:400A8000000009404000094001000A0048000940000309400403094010030940440009400700008000020940040209405000094099210000880E0940C80E0940480F094031
:400AC000080F0940C80F0940880F0940400100205804002054040020064A074B11680B40902109040B431360044B1A88044B1A607047C04600000240FFFF0FFF4001002036
:400B0000880F09400B480C4A0C4B10B51B68116804680B4A9B00224002601C2213400A07920F1833D340074A9B181B78064ADBB2136010BD0000074028000340080F034093
:400B4000FFFFFFBFCDF1FF0F0C0F0340024B18684000C00F7047C04600000740024B8000C31818681960704740000020F8B5032605003540B5400F0004000635AE40AF4087
:400B800001F003FBA408054BA400E4182368B3431F43276001F0FDFAF8BDC04600E400E01F2318401E3B8340014A13607047C04600E100E01F2318401E3B8340014A136073
:400BC0007047C04680E100E01F2318401E3B8340014A13607047C04680E200E070B5802504002D02064BAC4205D9586801F0C4FA044BE418F6E79868604301F0BDFA70BD5B
:400C0000880000200080FFFFF0B585B000F046F9002846D001F0B9FA0024234A234B01901B681068224A234D14602968224A9B001140A022520311431C2213400207920F39
:400C40001833D3401D4A1E4E53438022D2019B18DB0B013B0B432B6033683020039301F0D9FA8021174AC90513680B4313602A68154B1A40170001201034FFF7AFFFA30525
:400C80003B432B60F02CF6D10120FFF7A7FFFF23084A9B053B431360039B0198336001F078FA05B0F0BDC04628000340080F03400C0F03400800074000F800C040420F0036
:400CC0003000104000000740FFFF3FC0F7B50500183D0400182D45D80126234B3700EB409F433FD101F051FA0190FFF72FFF0097002802D0FFF706FF009607271B4E1C4ACB
:400D000033681C49BB4333601B4BE3181B78DBB213601A4A1368BB431360194B0A68E31818787F239A43034013430B60322001F023FA182C0ED033681C3CA408BB433C405F
:400D40001C433460322001F017FA3368AD08BB431D433560009B012B01D1FFF755FF019801F017FAF7BDC04611111101080F03400C0F0340180F0340CDF1FF0F100F03402D
:400D8000B4F1FF0F10B5034B1B7B584301F0F4F910BDC0468800002010B501F0F6F90421034A13688B43136030BF01F0F2F910BD10ED00E0F8B50F0080212A4B49001A68FE
:400DC000294B1A4011238A4249D1284A1168284A914244D102002749643A8A423FD8002F3DD0254B25491A68002A31D00A680723002A34DA224E0A333268002A2FD0533342
:400E000043431C001F4B2049E418200001F0ACFB1E4B0500196830681D4A4843890A95420BD901F0A1FB282101F09EFB19490500200001F099FB684305E001F095FB1649E6
:400E4000684301F091FB00230B4A3860136006E00E4A1268920A0A6001221A6007231800F8BDC046340003400F0F000018000340080900001C841E00440100201C000340EC
:400E80002000034071020000C40900009800002060D10000A0252600409C0000014B1868C00F704700000740014A024B1A6070476588EDAC38000340034A80B213681B0C5B
:400EC0001B0418431060704740000340014B186880B27047400003400121024A13680B43136070474C00034010B5074C2378002B05D100F023F900F071F90123237000F0E5
:400F000049F800F0E7FC10BD4C01002070B5FFF7EBFF041E13D100F031FC041E0FD100F095FA041E0BD1094D00F054FA002803D0002D03D0013DF7E7002D00D1102400F0EF
:400F400022FA00F089F9200070BDC046404B4C0070B504000126212815D81F22430904330A499B005B580240D3401036DB070AD5074B4501ED18280000F052F82900060044
:400F8000200000F0BBF8300070BDC046A4040020CC2900000123002270B50E4C5B420E4D23616361A261E26123335E1E11D30020AA7D1F33E31829681870012A06D1E8684E
:400FC000002803D0AA8AC97901F08FFB20353300EBE770BDA4040020D029000013B5040008006946130062880A80628A01F03EFA6B461B8863806B469B7823716B46DB780B
:4010000063716B461B79A37113BD10B500244A880B88CC809B1A0279934200DDCB8010BDF0B500240500837E87B00193C36886680293C3694768059303940C236343059A59
:40104000D31804932B8B9C4221D23100019A029800F0B4F93088798A049A01F034FA220004993800FFF7BAFF3100019A380000F0FCF8310003903800FFF7C7FF019B0A36CA
:40108000062B02D0029B063302930134D5E7039807B0F0BDF7B50B8B8C68019301234D680969019A561E019626D31A006E88AF79B4460240F61B002A01D13E006644E78846
:4010C000BE4203D293420AD01A0002E0002A11D000220E78013EF6B20E70002E06D1984310430126002A00D1EE790E705B000A340131D6E79843F7E7FEBD000070B50E4CA3
:40110000050023180133D87F8B7E012B01D1FFF7C1FF1F2263190133D8776B09063315409B001E3AAA40E158002802D191430A0000E00A43E25070BDA4040020F8B51B4C8E
:401140001B4A0021200001F0D0FA1A4B0822238080235B006380184B2000A380231DDA87164B053AE2542300154C4433023A1A702100AA2222319200463001F0ADFA114BE1
:4011800011491A005918230054328A420DD0168A1D0030001468013804D32F78013567720A34F8E79B192032EFE7F8BDA40400204C0400006A630000B80B00004904000026
:4011C000002700008029000094040000024BD8699B6918437047C046A40400200023024AD380024A13607047A4040020D4030020C9B28318062901D0002119715200801873
:401200000288428000221A72704710B50022FFF7EFFF10BD064B40011B1810B59A7E9C680A234B431100E018FFF7EFFF10BDC046CC29000070B50400064A4301D3181B8B01
:401240005D1E002B05D029002000FFF7E3FF2B00F6E770BDCC29000010B52224013C03D32000FFF7E7FFF9E710BDF8B505000800038844881100A34205D26E79E21AB2422C
:401280001DD8002603E000261A1B067201362F79BA420ED8FF25294006291AD002792402144365431B02EB181A0A1B0C438002710FE06D79AA420CD8002EEBD009E0037AC1
:4012C0002A7A9A4202D90133037202E00022FFF78FFF0020F8BDD2B2062A01D00B8803807047D2B2062A05D00B880288D3185B0803800B807047D2B2062A02D00B884380A6
:4013000083807047F0B51A4A4301D31859681C8B85B000900191013C0392631C25D00A25009B039A5B016543D3189A68D96955190C2262439F7E8A18DE680292062F02D03B
:4013400006236343F6183A0029003000FFF7C3FF3A0029003000FFF7CEFF019B2888598A029A01F0A4F8013CD7E705B0F0BDC046CC29000010B52224013C03D32000FFF70B
:40138000C1FFF9E710BD10B5FFF7F4FF10BDD2B270B5062A11D00A884488150026008388A24201D92500160084804280B34200D93300AB4200D22B000B8070BD70B50D0053
:4013C00016000400FFF7E3FF320029002000FFF788FF70BD024BD868802318407047C046A4040020802370B50B4D5B02EC6811221C400ED1103A21280BD81F214309043351
:401400009B005B590140CB40134202D000F0F8FC2200100070BDC046A4040020094B10B5DC6880235B021C401120002C09D1064B1B78012B03D100F045FC200001E00120B2
:40144000404210BDA4040020D80300200C4B10B5DC68802311201C4011D12000FFF7C2FF002809D1074B212C02D001225A7000E05870FFF7D3FF02E00134222CEDD110BD51
:40148000A4040020D8030020F7B5012803D0022804D1052500E00025002601E000250626134C00F072FE01900720231F1968E2680B6893430B60A77D2268B840126882431E
:4014C0003000B8400243206802602800227D9040626803430B602169136801988B43136000F057FE034B1C349C42DAD1F7BDC046102E0000C831000010B5174CA3780133D0
:40150000DBB2A370A078C0B2FFF76CFF002806D1A378212B00D16070FFF780FF1BE0A2780E4B0006212A0ED180211A8901321A81DA688A43DA60DA681202120ADA60DA68BD
:401540001043D86007E0DA681202120ADA60DA681043D860D1E710BDD8030020A4040020064A074B01381A60064A000210601A68002AFCDB044A024B1A6070474000004052
:40158000000001400003014040FF008001238B400103013B091A0622994205D9F9325043FA3A834200D20022D0B27047F8B52A4B4001181843680C009E890988002230007C
:4015C00000F08CFA07009F2E27D9244B984206D9234901F04FF80425002928D003E0FF235B00984207D91F49380001F043F8032500291CD001E07E2807D97F21380001F038
:4016000039F80225002912D001E03E2805D93F21380001F02FF800291CD021887000FFF7B5FF421ED2B205000023032A0ED8C8203100C00000F098FF0023092802D80133B9
:401640004000FAE70A38421E90411B1A1B012B43A373F8BD0125EAE7CC290000FE030000FF030000FF010000F0B53C4F4301FF18BB688BB000933A4B0600443319783948CD
:4016800000F072FFFA2303AC9B002382364B7D68E08263822B8A3549A3822B001233E3600C232B8000F060FF0023A881AB734621300000F0FFFB00231A001900FF7EB94223
:4016C0000BD20098407A834202D2009B1A880300009801310A300090F1E7697AE376A176AB7A234FDB00FB185B68FA2063602B0080000C3350431F490093A36000F034FF60
:401700002083200000F044FE01970390AB89032B02D85B00AB81F9E7174B0027984200D906374621300000F0C5FBAB7A019ADB00D3185B68200063606B7AA376009BA3605E
:4017400000F056FE290028803000FFF72FFF4621300000F0AFFB38430BB0F0BDCC290000A4040020C05D0000E5070000DC050000C4310000FF0F0000880D010070B5002463
:4017800025002000FFF770FF01340543222CF8D1280070BD10B50024054B6201D318200059680134FFF702FF222CF5D110BDC046CC290000F0B5284D284E2B6885B0284F57
:4017C00000933368039001933B68264C029300F0DCFC2B68244A13402B6000F0DAFC00F0D4FC042233689343336000F0D2FC00F0CCFCC0223B685200234013433B6000F002
:40180000C8FC6B469889FFF7BDFA00F0BEFC3B68029A1C40E0235B0013401C433C6000F0B8FC00F0B2FC0422042133689343019A0A401343336000F0ACFC00F0A6FC2B68EB
:40184000094A00991A40F0231B010B4013432B6000F09FFC05B0F0BD0004024000040440080404403FFEFFFFFFF0FFFF70B5050014000E0000F089FC2B685C4034405C40D4
:401880002C6000F086FC70BD70B50F4D04002A78824218D0012A0BD10C490D480B6893430B60F02100220901FFF7E0FF00F098FA012C03D100F024F82C7004E0023C022C38
:4018C00001D900232B7070BDD8030020A8020B400004024010B50024FFF75CFF0020FFF7D3FD054B054A2000D454FFF7CDFF0120FFF7CAFF200010BD49040000A404002042
:40190000F8B589263C4C3D4DF600A05D635D834203D0FFF7B9FDA35D63550120FFF74AFFC022374B0025374E12031A603368364AF021134310223360344B354F1D60354B46
:4019400009011D60344B35481A60C022344BD2001D60344B44341D60334B1D60334B1D60334B3D601D60FFF781FF2A0004213148FFF77CFF8021304A490113680B43136068
:4019800001222E4B2E491A6033681F4A1343336080232C4A5B0413602B4A11602B4A15603B602B4A2B4B1A60C5222B4B52041A602078FFF7D5FD7023284D21782E682848BE
:4019C0009E4300F0D1FD274A2B00904201D8202200E0302216431E601B68234A1343234A13600F22224B1A600022224B1A60224B0A321A60F8BDC046A4040020490400007C
:401A000004020B40A8020B4001000010F4000B4084020B40B4020B40C0020B400004024020030B4084010B4088020B4080020B4080010B400004044094020B40A0020B4029
:401A400041120000A4020B4088010B4090020B4000008F01C0010B40C4010B409C00002000366E01001BB7000010008000000B4000030B40F0010B4010030B40F8B507001B
:401A8000837A104ADB009C5800F07FFB0E490F4A0D7813680E4E7F19797A334023430B43136000F076FB00F070FB0A4B1A681640094A3443126855196E7A34431C6000F0FF
:401AC00068FBF8BDC4310000F4310000C0010B4080FF3FFCC4010B40F008002001238B4070B5050014001800102900D11D38002D02D0290000F038FD053C012C00D8400847
:401B00000123002800D00300180070BD0C4B0D4A1B785B01D3185A689389927B1104053A012A02D8802080040143D2B2012A02D85B0800D10133044A013B0B43136070471A
:401B4000DA030020CC29000000020B4010B5827B01888089FFF7C2FF014B80B2186010BD14030B40F0B50A2087B0FFF723F80123314F9C463B600023304E314D314A336091
:401B80002A600622304C314823600260624630490A6061462F4A11600631FF318C4662462D490A602D4A944613602D4A0333136003950A0065460421019702960494244F2B
:401BC000244C274EED3305901068084203D1002B03D0013BF8E7002B01D10823336083235B0013600A20FEF7EFFF0A20FEF7D8FF0023039A3B601360049A02991360059A51
:401C00001360502222604F3A0A608021019A49041360144A13680B43136002230721124A2B60EF331068084202D0013B002BF9D10E4B336007B0F0BD80010B408C010B40A5
:401C4000B0020B4001010100B4020B4088020B4080020B40F0010B40F0000B40F8000B4040030B4000020B4000000B400103000010B5054A0549D3680A200B43D360FFF79F
:401C800081F8FFF76FFF10BDA404002080000100F8B50400077E857E00F077FA0F22BA40266807213368A94093431A000423BB406468134322688A432260336000F069FA3F
:401CC000F8BD0000F7B589261A4A1B4913781B4C5B01CB185B681A4D0193F600A05D635D1700834203D0FFF7CFFBA35D63550023144D114C2B703A7829780A334B43520156
:401D0000A21892680198D3180F4A1360FFF7B6FE1C233A78287852015843135918180B4B1860FFF7B5FF0A4800F012FAFFF7A0FFF7BDC046DA030020CC290000A40400200B
:401D400049040000DB030020F0080020F4080020D12200001C2310B55943044B4201D058034B40181860FFF793FF10BDCC290000F4080020F7B50400057E867E00F005FAED
:401D800007230F27B340AF40616801900A6812489A43944622681368BB43104F1360C75D002F05D106236246B34013430B6007E0022F05D10526AE40604633430860136083
:401DC0000122A168647E0B68A24093430B60019800F0DFF9F7BDC046A40400204904000010B5054C2378012B05D1044B1868FFF7C1FF0023237010BDDC030020F408002039
:401E000070B5104E104C4301C0B2F318207001205D68FFF739FDFFF7E3FF7F21237828005B019A59094B1A60094BDA688A43DA602178DA680A43DA60FFF788FEFFF766FE33
:401E400070BDC046CC290000DA030020F4080020A4040020114A4301D2180A2370B5104CC9B22170217855684B439268D3180D4A1360FFF7C5FF2800FFF700FE1C232078D6
:401E8000094A5843136818181060FFF701FF0122064B07481A7000F05BF970BDCC290000DB030020F0080020F4080020DC030020A5220000F0B5984B89B0DB68029003914E
:401EC0001122DB0300D523E1944A4301D3185F680423BB7201203B8864219840039B0138584300F041FB0024029B8C4A5B01D318069001940593059B01991A8B0833914263
:401F000038D20A25059B40269B687E720493019B5D43049B5D1907236E72049301990298FFF798FF0120FFF745FCFFF7A1FE7C4B794A8020D168014202D0013B002BF8D190
:401F40002B88069A9A4202D97B7AB3437B727B7A76083343DBB27B726B72049B013B0493002BDBD17B7A002B30D101337B7201236B722BE01B687C720193BD7A261E02D056
:401F80007F237E2C00D823000A214A4301998A1804920A0004998A4205D0517A8B4200D90B000A32F6E7002D29D0132B27D85D49EB00013DEA00CB188A185168586800F069
:401FC000D3FA46437E2E1AD8BD7283E7019902987D7AFFF73FFFFFF74BFE8022504B4E49C868104202D0013B002BF9D12B1CA54200D2231CDCB2019B013301937BE7019B2E
:40200000464A1988029B25005B01D3180022DB7E0693019B0698824208D2587A854202D80A330132F6E719880500F9E701233A8864209340013B48431900059300F094FA01
:4020400064306843039900F08FFAA04200D9200032230025039E019C46439B1B78720793069BAB4216D9642320880599584300F07BFA637A64305843B04208D3079B64216C
:40208000181800F071FA60720A340135E8E700236372F9E780240298FFF7B2FEFFF712FE21491D4AD0680300234005D0002901D00139F7E710222BE01022002928D00124B3
:4020C0003A8818009440039B013C0A2B01D918000A386043642100F047FA039D06000A35642D00D9642520006421684300F03CFA0022049B01998B420AD0019B1B88B34211
:4021000001D3834200D90622019B0A330193F0E7100009B0F0BDC046A4040020CC29000001A60E00C431000000366E0110B5040000F02BF8044A054B1168A4050B401C43F3
:40214000146000F026F810BD08E400E0FFFF3FFF10B58024054BE4001C60054B98660320FFF7E4FF034B1C6010BDC04680E100E00000002000E100E00230800803D0013028
:402180000238FCD1C046C0467047EFF3108072B6704780F310887047154B70B51B68002B00D09847134B1B689B071FD51F20124C124A21681368994210D013680133462B11
:4021C00000D100230E490F4DC95CC9B2296013600D4B1B680340082BEBD104E002210B4A13688B4313600222094B1A6070BDC0463C0100208C0F094058040020540400201D
:402200005C0400204002094008020940880F0940800F094010B50400FFF7B7FF102C04D803210C4A13688B430FE0202C05D80321084A13688B43023906E0302C06D80321E2
:40224000044A13688B4301390B431360FFF7A1FF10BDC0463000104010B50D4B0D491B780D4A5B01CB185B681268198801238B400A48013B94B20A4900689C4203D20B78B5
:402280005B001A5202E00A785200135210BDC046DA030020CC290000D0000B40F0080020F43100008322074B520010B51A60FFF7D3FF054B1A89D96801321A81034A0A4036
:4022C000DA6010BDF0000B40A40400207FFFFEFFF8B51C23264D274C2A78274E277852015F4393598322DF19244B52001A60FFF7B3FF3800FFF73EFD2B782A7821785201D6
:40230000B218127EDBB2013A8A421BD95B01F318586823780133DBB223700A232A78217852014B43B2189268D318154A1360FFF7A5FB28782178C0B2C9B2FFF70BFDFFF72B
:4023400011FC14E0002323700E4B0F4AD9680A40DA600E4A1278012A02D1FFF7CDF806E08021DA688A43DA601A8901321A81F8BDDA030020DB030020CC290000F0000B4073
:40238000F0080020A4040020FFFFFEFFD9030020F7B5FA278368C58A0193038B867EBF005E43C37E04007B43F618019B2800198800F0DAF881B2606800F0D6F8618A70432A
:4023C00000F0D2F80600208A3900704300F0CCF80649684300F0C8F80123002802D040085B00FAE7019A30001380FEBD00E1F50570B50400FA21438A807E1D04ED1A636891
:402400008900584300F0B0F80100280000F0ACF8A36805001988E08A00F0A6F880B26843104900F0A1F8A38A0A21584300F09CF800230D4A216810258A425B410222D31A93
:4024400062325343984203D9013D4008062DF9D14B236421584300F087F8E4682080E8B270BDC046A0860100A761000010B50024A34200D00C880388101C9B009BB29A4267
:4024800000D2181C83B2221C9C4200D2021C93B20A805A08FF2A01D9FF2200E0D2B28A70CA70DB08FF2B00D9FF230B7110BD8B0813800F2393720023C90851809080D08015
:4024C0001081D3727047937A30B594885B00041B9080DBB2002C01DB937202E00133937264420F23957A1D4053889572A34203D9012B03D9013B00E0013353800F2D05D0DF
:40250000002D03D053889D00AC4204D90023D0801081D3721DE0D488844201D9D08003E01489844200D21081D07A092802D80130D0720EE01089D488001B80B2834204D983
:4025400089088B4203D9013B00E0013353805388138030BD03B47146490840004900095A49008E4403BC7047002243088B4274D303098B425FD3030A8B4244D3030B8B420F
:4025800028D3030C8B420DD3FF22090212BA030C8B4202D31212090265D0030B8B4219D300E0090AC30B8B4201D3CB03C01A5241830B8B4201D38B03C01A5241430B8B42AE
:4025C00001D34B03C01A5241030B8B4201D30B03C01A5241C30A8B4201D3CB02C01A5241830A8B4201D38B02C01A5241430A8B4201D34B02C01A5241030A8B4201D30B02EF
:40260000C01A5241CDD2C3098B4201D3CB01C01A524183098B4201D38B01C01A524143098B4201D34B01C01A524103098B4201D30B01C01A5241C3088B4201D3CB00C01AE5
:40264000524183088B4201D38B00C01A524143088B4201D34B00C01A5241411A00D20146524110467047FFE701B5002000F006F802BDC0460029F7D076E770477047C046BB
:40268000014B18687047C046000100200E4B70B500251E000D4CE41AA410A54204D0AB00F35898470135F8E700F0A6FD084B00251E00084CE41AA410A54204D0AB00F3581F
:4026C00098470135F8E770BD0432000004320000043200000C320000002310B59A4203D0CC5CC4540133F9E710BD03008218934202D019700133FAE7704700000000000088
:40270000202020202020202020202020202020202020202020202020202020202020202020200C00640028280A031E20040004000000E80300000C00640028280A031E2050
:40274000040004000000E80300000C00640028280A031E20040004000000E80300000C00640028280A031E20040004000000E80300000C00640028280A031E200400040057
:402780000000E80300000C00640028280A031E20040004000000E80300000C00640028280A031E20040004000000E80300000C00640028280A031E20040004000000E80334
:4027C00000000C00640028280A031E20040004000000E80300000C00640028280A031E20040004000000E80300000C00640028280A031E20040004000000E80300000C00D3
:40280000640028280A031E20040004000000E80300000C00640028280A031E20040004000000E80300000C00640028280A031E20040004000000E80300000C0064002828EA
:402840000A031E20040004000000E80300000C00640028280A031E20040004000000E80300000C00640028280A031E20040004000000E80300000C00640028280A031E2013
:40288000040004000000E80300000C00640028280A031E20040004000000E80300000C00640028280A031E20040004000000E80300000C00640028280A031E200400040016
:4028C0000000E80300000C00640028280A031E20040004000000E80300000C00640028280A031E20040004000000E80300000C00640028280A031E20040004000000E803F3
:4029000000000C00640028280A031E20040004000000E80300000C00640028280A031E20040004000000E80300000C00640028280A031E20040004000000E80300000C0091
:40294000640028280A031E20040004000000E80300000C00640028280A031E20040004000000E80300000C00640028280A031E20040004000000E80300000C0064002828A9
:402980000A031E20040004000000E80300000C00640028280A031E20040004000000E80300000C00640028280A031E20040004000000E80300000C00640028280A031E20D2
:4029C000040004000000E803000000000C2E0000EA0400209207002014020020D30300200128000001000101A6030020282E0000FE0400209C0700200E020020D203002062
:402A000001280000010001019A030020442E000012050020A607002008020020D103002001280000010001018E030020602E000026050020B007002002020020D003002075
:402A40000128000001000101820300207C2E00003A050020BA070020FC010020CF030020012800000100010176030020982E00004E050020C4070020F6010020CE0300209B
:402A800001280000010001016A030020B42E000062050020CE070020F0010020CD03002001280000010001015E030020D02E000076050020D8070020EA010020CC030020BF
:402AC000012800000100010152030020EC2E00008A050020E2070020E4010020CB030020012800000100010146030020082F00009E050020EC070020DE010020CA030020E2
:402B000001280000010001013A030020242F0000B2050020F6070020D8010020C903002001280000010001012E030020402F0000C605002000080020D2010020C803002003
:402B40000128000001000101220300205C2F0000DA0500200A080020CC010020C7030020012800000100010116030020782F0000EE05002014080020C6010020C603002026
:402B800001280000010001010A030020942F0000020600201E080020C0010020C50300200128000001000101FE020020B02F00001606002028080020BA010020C403002049
:402BC0000128000001000101F2020020CC2F00002A06002032080020B4010020C30300200128000001000101E6020020E82F00003E0600203C080020AE010020C20300206E
:402C00000128000001000101DA020020043000005206002046080020A8010020C10300200128000001000101CE020020203000006606002050080020A2010020C00300208F
:402C40000128000001000101C20200203C3000007A0600205A0800209C010020BF0300200128000001000101B6020020583000008E0600206408002096010020BE030020B3
:402C80000128000001000101AA02002074300000A20600206E08002090010020BD03002001280000010001019E02002090300000B6060020780800208A010020BC030020D7
:402CC000012800000100010192020020AC300000CA0600208208002084010020BB030020012800000100010186020020C8300000DE0600208C0800207E010020BA030020FB
:402D000001280000010001017A020020E4300000F20600209608002078010020B903002001280000010001016E0200200031000006070020A008002072010020B80300201C
:402D40000128000001000101620200201C3100001A070020AA0800206C010020B7030020012800000100010156020020383100002E070020B408002066010020B60300203E
:402D800001280000010001014A0200205431000042070020BE08002060010020B503002001280000010001013E0200207031000056070020C80800205A010020B403002062
:402DC0000128000001000101320200208C3100006A070020D208002054010020B3030020012800000100010126020020A83100007E070020DC0800204E010020B203002086
:402E000001280000010001011A020020000102400801044000010440040104400F000000010000000000000000010240080104400001044004010440F000000002000000EC
:402E40000401030000010240080104400001044004010440000F000004000000080206000001024008010440000104400401044000F00000080000000C0309000001024098
:402E800008010440000104400401044000000F001000000010040C00000102400801044000010440040104400000F0002000000014050F00000102400801044000010440CD
:402EC000040104400000000F400000001806120000010240080104400001044004010440000000F0800000001C071500000202400802044000020440040204400F00000013
:402F0000010000000000000000020240080204400002044004020440F0000000020000000401030000020240080204400002044004020440000F000004000000080206002F
:402F40000002024008020440000204400402044000F00000080000000C0309000002024008020440000204400402044000000F001000000010040C0000020240080204402C
:402F800000020440040204400000F0002000000014050F00000202400802044000020440040204400000000F40000000180612000002024008020440000204400402044086
:402FC000000000F0800000001C071500000302400803044000030440040304400F000000010000000000000000030240080304400003044004030440F000000002000000DB
:403000000401030000030240080304400003044004030440000F000004000000080206000003024008030440000304400403044000F00000080000000C03090000030240C4
:4030400008030440000304400403044000000F001000000010040C00000302400803044000030440040304400000F0002000000014050F00000302400803044000030440F7
:40308000040304400000000F400000001806120000030240080304400003044004030440000000F0800000001C071500000402400804044000040440040404400F0000003F
:4030C000010000000000000000040240080404400004044004040440F000000002000000040103000004024008040440000404400404044000F00000080000000C03090071
:40310000000002400800044000000440040004400F000000010000000000000000000240080004400000044004000440F000000002000000040103000000024008000440C3
:403140000000044004000440000F000004000000080206000000024008000440000004400400044000F00000080000000C030900000002400800044000000440040004405C
:4031800000000F001000000010040C00000002400800044000000440040004400000000F400000001806120000000240080004400000044004000440000000F080000000AD
:4031C0001C071500000000017C92000000000003F824010000004001E093040000004003C027090000008001009F240000008003003E490000430000F8B5C046F8BC08BCC1
:403200009E4670473101000021090000F8B5C046F8BC08BC9E46704709010000303200008000002088000000F00700000000000000000000B0040000010000000000E02E83
:40324000C05D00001800000000366E01200000040000000000000000000000000000000000000000000000000000000000000000F53100000000000000000000000000002A
:40328000000000000000000000000000000000000000000000000000000000000000000000000000000000000000000000000000A00000200000000000000000000000004E
:4032C00000000000000000000000000000000000000000000000000000000000000000000000000000000000000000000000000000000000000000000000000000000000CE
:40330000000000000000000000000000000000000000000000000000000000000000000000000000000000000000000000000000000000000000000000000000000000008D
:40334000000000000000000000000000000000000000000000000000000000000000000000000000000000000000000000000000000000000000000000000000000000004D
:40338000000000000000000000000000000000000000000000000000000000000000000000000000000000000000000000000000000000000000000000000000000000000D
:0200000490303A
:02000000BBAB98
:0200000490402A
:200000000000000000000000000000000000000000000000000000000000000000000000E0
:0200000490501A
:0C0000000002190F11A90000191DCD54B9
:0200000490600A
:0100000001FE
:00000001FF